:0200000001fffe
:0200010001fefe
:0200020001fdfe
:0200030001f901
:0200040001f504
:0200050001f008
:0200060001e90e
:0200070001e115
:0200080001d81d
:0200090001ce26
:02000a0001c330
:02000b0001b63c
:02000c0001a948
:02000d00019a56
:02000e00018b64
:02000f00017b73
:02001000016984
:02001100015795
:020012000144a7
:020013000130ba
:02001400011ccd
:020015000107e1
:0200160000f1f7
:0200170000da0d
:0200180000c422
:0200190000ac39
:02001a00009450
:02001b00007c67
:02001c0000647e
:02001d00004b96
:02001e000032ae
:02001f000019c6
:020020000000de
:0200210003e7f3
:0200220003ce0b
:0200230003b523
:02002400039c3b
:02002500038452
:02002600036c69
:02002700035480
:02002800033c97
:020029000326ac
:02002a00030fc2
:02002b0002f9d8
:02002c0002e4ec
:02002d0002d0ff
:02002e0002bc12
:02002f0002a924
:02003000029735
:02003100028546
:02003200027555
:02003300026663
:02003400025771
:02003500024a7d
:02003600023d89
:02003700023293
:0200380002289c
:02003900021fa4
:02003a000217ab
:02003b000210b1
:02003c00020bb5
:02003d000207b8
:02003e000203bb
:02003f000202bb
:020040000201bb
:020041000202b9
:020042000203b7
:020043000207b2
:02004400020bad
:020045000210a7
:0200460002179f
:02004700021f96
:0200480002288c
:02004900023281
:02004a00023d75
:02004b00024a67
:02004c00025759
:02004d00026649
:02004e00027539
:02004f00028528
:02005000029715
:0200510002a902
:0200520002bcee
:0200530002d0d9
:0200540002e4c4
:0200550002f9ae
:02005600030f96
:0200570003267e
:02005800033c67
:0200590003544e
:02005a00036c35
:02005b0003841c
:02005c00039c03
:02005d0003b5e9
:02005e0003cecf
:02005f0003e7b5
:0200600000009e
:02006100001984
:0200620000326a
:02006300004b50
:02006400006436
:02006500007c1d
:02006600009404
:0200670000aceb
:0200680000c4d2
:0200690000dabb
:02006a0000f1a3
:02006b0001078b
:02006c00011c75
:02006d00013060
:02006e0001444b
:02006f00015737
:02007000016924
:02007100017b11
:02007200018b00
:02007300019af0
:0200740001a9e0
:0200750001b6d2
:0200760001c3c4
:0200770001ceb8
:0200780001d8ad
:0200790001e1a3
:02007a0001e99a
:02007b0001f092
:02007c0001f58c
:02007d0001f987
:02007e0001fd82
:02007f0001fe80
:00000001FF
