:0200000001fffe
:0200010001fffd
:0200020001fffc
:0200030001fffb
:0200040001fffa
:0200050001fff9
:0200060001fff8
:0200070001fff7
:0200080001fff6
:0200090001fff5
:02000a0001fff4
:02000b0001fff3
:02000c0001fff2
:02000d0001fff1
:02000e0001fff0
:02000f0001ffef
:0200100001ffee
:0200110001ffed
:0200120001ffec
:0200130001ffeb
:0200140001ffea
:0200150001ffe9
:0200160001ffe8
:0200170001ffe7
:0200180001ffe6
:0200190001ffe5
:02001a0001ffe4
:02001b0001ffe3
:02001c0001ffe2
:02001d0001ffe1
:02001e0001ffe0
:02001f0001ffdf
:0200200001ffde
:0200210001ffdd
:0200220001ffdc
:0200230001ffdb
:0200240001ffda
:0200250001ffd9
:0200260001ffd8
:0200270001ffd7
:0200280001ffd6
:0200290001ffd5
:02002a0001ffd4
:02002b0001ffd3
:02002c0001ffd2
:02002d0001ffd1
:02002e0001ffd0
:02002f0001ffcf
:0200300001ffce
:0200310001ffcd
:0200320001ffcc
:0200330001ffcb
:0200340001ffca
:0200350001ffc9
:0200360001ffc8
:0200370001ffc7
:0200380001ffc6
:0200390001ffc5
:02003a0001ffc4
:02003b0001ffc3
:02003c0001ffc2
:02003d0001ffc1
:02003e0001ffc0
:02003f0001ffbf
:0200400001ffbe
:0200410001ffbd
:0200420001ffbc
:0200430001ffbb
:0200440001ffba
:0200450001ffb9
:0200460001ffb8
:0200470001ffb7
:0200480001ffb6
:0200490001ffb5
:02004a0001ffb4
:02004b0001ffb3
:02004c0001ffb2
:02004d0001ffb1
:02004e0001ffb0
:02004f0001ffaf
:0200500001ffae
:0200510001ffad
:0200520001ffac
:0200530001ffab
:0200540001ffaa
:0200550001ffa9
:0200560001ffa8
:0200570001ffa7
:0200580001ffa6
:0200590001ffa5
:02005a0001ffa4
:02005b0001ffa3
:02005c0001ffa2
:02005d0001ffa1
:02005e0001ffa0
:02005f0001ff9f
:0200600001ff9e
:0200610001ff9d
:0200620001ff9c
:0200630001ff9b
:0200640001ff9a
:0200650001ff99
:0200660001ff98
:0200670001ff97
:0200680001ff96
:0200690001ff95
:02006a0001ff94
:02006b0001ff93
:02006c0001ff92
:02006d0001ff91
:02006e0001ff90
:02006f0001ff8f
:0200700001ff8e
:0200710001ff8d
:0200720001ff8c
:0200730001ff8b
:0200740001fe8b
:0200750001fe8a
:0200760001fe89
:0200770001fe88
:0200780001fe87
:0200790001fe86
:02007a0001fe85
:02007b0001fe84
:02007c0001fe83
:02007d0001fe82
:02007e0001fe81
:02007f0001fe80
:00000001FF
